:060000000212B302006BC6
:03000B0002006B85
:0300130002006B7D
:03001B0002006B75
:0300230002006B6D
:03002B0002006B65
:0300330002006B5D
:03003B0002006B55
:0300430002006B4D
:03004B0002006B45
:0300530002006B3D
:03005B0002006B35
:0300630002006B2D
:01006B003262
:0900800002006B0002006B00029B
:08008900006B0002006B000295
:08009100006B0002006B00028D
:08009900006B0002006B000285
:0800A100006B0002006B00027D
:0800A900006B0002006B000275
:0700B100006B0002006B0070
:0901000002006B0002006B00021A
:08010900006B0002006B000214
:08011100006B0002006B00020C
:08011900006B0002006B000204
:08012100006B0002006B0002FC
:08012900006B0002006B0002F4
:08013100006B0002006B0002EC
:08013900006B0002006B0002E4
:08014100006B0002006B0002DC
:08014900006B0002006B0002D4
:08015100006B0002006B0002CC
:08015900006B0002006B0002C4
:08016100006B0002006B0002BC
:08016900006B0002006B0002B4
:08017100006B0002006B0002AC
:07017900006B0002006B00A7
:0312E8000212F0FF
:0712B300750D00750E0075BA
:0612BA000F01750800752C
:0612C0000900750A00752B
:0512C6000B00750C0097
:031303000212EBE8
:0512EB0012057780FEF2
:0501800090E68BE4F0A5
:0901850090E6A0E0FA20E1F82266
:0A018E0090E6B8E0FABAC002800360
:03019800020263FD
:0A019B0090E6B9E0FABA8002800E87
:0501A500BA8102804751
:0601AA00BA820302021FED
:0301B00002025FE9
:0C01B30090E6BCE0FA6005BA013080174D
:0A01BF0090E740E50BF0750B00908F
:0D01C900E68AE4F090E68B7401F002038DED
:0A01D60090E740E50AF0750A00907A
:0D01E000E68AE4F090E68B7401F002038DD6
:0401ED0075820022F5
:0A01F10090E6BAE0FA753A40753B5B
:0C01FB00E790E6BEE0F53C8A82120B297A
:07020700E5827003F582227D
:0E020E0090E68AE4F090E6BEE0FA90E68BF00F
:03021C0002038D4D
:0C021F0090E6BBE0FA90E6BAE0F5229011
:0A022B00E6BDE0F52390E6BCE0F527
:05023500247525407551
:0A023A0026E790E6BEE0F5278A8271
:0A0244001208F4E5827003F582222F
:0E024E0090E68AE4F090E6BEE0FA90E68BF0CF
:03025C0002038D0D
:04025F007582002282
:0A02630090E6B8E0FABA400280030A
:03026D0002038900
:0C02700090E6B9E0FA24F4500302038584
:07027C00EA2A2A90028373B5
:070283000203850202A7023D
:06028A0002CF0203850211
:0602900002F90203050261
:06029600031102038502C2
:06029C00033302035302CC
:0502A200031D0203280A
:0C02A70090E6BCE0FA6005BA011A800C79
:0C02B30090E6BAE0F58212066602038DA8
:0C02BF0090E6BAE0F58212067302038D8F
:0402CB007582002216
:0C02CF0090E6BCE0FA600ABA0102800868
:0502DB00BA02178012B9
:0302E0000207080A
:0C02E30012018090E68BE0F51590E740DA
:0302EF000207778C
:0302F20002078779
:0402F50075820022EC
:0C02F90090E6BAE0F5821207E902038DDE
:0C03050090E6BAE0F58212080402038DB5
:0C03110090E6BAE0F58212081F02038D8E
:0B031D0090E6BAE0F58212083A806515
:0B03280090E6BAE0F582120844805A0B
:0C03330012018090E6BAE0FA753A4075BD
:0A033F003BE790E68BE0F53C8A8274
:0A034900120BE9E582703DF58222F7
:0D03530012018090E6BBE0FA90E6BAE0F5FA
:0A0360002890E6BDE0F52990E6BC08
:07036A00E0F52A752B407538
:0A0371002CE790E68BE0F52D8A8260
:0A037B00120962E582700BF5822280
:04038500758200225B
:040389007582002257
:04038D007582012252
:0703910085822B85832C758A
:0603980028007529207504
:09039E002A00752D03758200028E
:0203A7000962E9
:0E03A900AA829018007403F090180174F6F008
:0C03B7009018027435F0901800C002127B
:0A03C3000391D002EA901306939014
:0903CD001800F0EA90130E939061
:0903D6001801F0EA90131693904F
:0903DF001802F0901800C002128F
:0A03E8000391D002EA90131E9390D7
:0903F2001800F0EA901326939024
:0903FB001801F0EA90132E939012
:070404001802F0901800023D
:02040B0003915B
:0D040D0090E6C67481F090E6C7742DF09063
:0E041A00E6C87426F090E6C9E4F090E6CA74D5
:0E04280004F090E6CB7404F090E6CC7403F080
:0B04360090E6CD7402F090E60CE4F0BC
:0A04410074405580FAB50E028023C6
:0A044B00E50E701FE58030E7037531
:020455000D0098
:09045700050D74F8250D50037524
:020460000D008D
:0C046200850D82C0021203A9D002801098
:06046E00EAB50E02800A4F
:0A047400758200C0021203A9D00235
:06047E008A0E300003129B
:020484000DE485
:0C048600E5BB30E7B6E508602AE5AB20D6
:0E049200E12590E6F4E0FA30E01D90E6D0742B
:0E04A00001F00090E6D1E4F00090E6C874216F
:0604AE00F00075BB000028
:0504B400E5BB30E7FB91
:0C04B900E509608490E6A5E0FA30E3035A
:0304C500020441ED
:0B04C80090E6F4E0FA20E1030204419A
:0E04D30090E6D07401F00090E6D1E4F00090C5
:0A04E100E6C87426F00075BB0600A3
:0D04EB00E5BB30E7FB0090E6487406F00228
:0204F8000441BD
:0A04FA00C0E0D50F09750F0A63A0DA
:0405040040750C0131
:05050800C2CFD0E0327B
:04050D00751B0375E2
:030511001C18753E
:090514001A05751D0175825012D3
:08051D000A92901803E0FA9025
:0C052500E00CF090E05AEAF074302A90EC
:05053100E0CEF0751B97
:0305360004751C2D
:0505390018751AF875A9
:0A053E001D08758250120A927A001F
:03054800BA0800EE
:0A054B005029EA2404F582E4341874
:09055500F583E0FBBBFF027B30E3
:0C055E008A04E4CC25E0CC33FDEC242A18
:0C056A00F582ED34E1F583EBF00A80D25D
:010576002262
:08057700753A00753B10E4F534
:0B057F003C90E1F075F000120C6212DD
:0E058A0005C212084E90E601E04404F07582AE
:0D05980000120666758200120673C2AF12D3
:0605A500050D1211CA123F
:0505AB000D4E7AFA7B01
:0C05B000048A828B83121272D2EAD2AF4E
:0605BC00120B0502040D04
:081306000003020100000302D4
:08130E000D0D0D0D0D0D0D0D6F
:08131600334353637393A3B347
:08131E000001020203000102BC
:08132600804C19E6B3804C195C
:08132E0004C494643404C49467
:0813360086868686868686867F
:08133E008E8E8E8E8E8E8E8E37
:0E05C20090E6007410F0758E0090E60174F261
:0E05D000F00075803875B23B75A0C075B4CFD1
:0E05DE0075B1F075B6F890E61074A0F00090BC
:0E05EC00E61174E0F00090E61274A0F00090AA
:0D05FA00E613E4F00090E61474E0F00090C9
:0D060700E615E4F00090E6047480F0009029
:0E061400E6047402F00090E6047406F0009014
:0D062200E604E4F00090E6187401F000908A
:0E062F00E6187411F00090E61A7409F00090BD
:0E063D00E68AE4F00090E68DE4F00090E6D24C
:0E064B007401F00090E6E27402F00090E624E4
:0D0659007402F00090E625E4F0000206F9BE
:09066600E582FA700443A0402271
:04066F0053A0BF22B3
:09067300E582FA700443A0802224
:04067C0053A07F22E6
:0406800063A0402211
:0406840063A08022CD
:01068800224F
:01068900224E
:0B068A00AA8290180CE511F0743F5597
:0606950010FBEAB40100B5
:09069B00E433FA60047A028002E3
:0206A4007A04D6
:0506A6008B288A297574
:0406AB002A20752B61
:0306AF000C752C9B
:0806B20018752D01758200028C
:0206BA000962D3
:0C06BC00AA8290180CE512F0743F5AF569
:0506C8002875290675EC
:0406CD002A20752B3F
:0306D1000C752C79
:0806D40018752D01758200026A
:0206DC000962B1
:0A06DE007512017582011206BC7549
:0906E800120F7582081206BC75A0
:0806F10012007582140206BC20
:0D06F9001206881208BB53A0FE43A00102A8
:0207060006DE0D
:0C07080053A0C175822812128F43A00478
:09071400E5A030E5FB758201222D
:0E071D00E5821392A1D2A3C2A31392A1D2A38C
:0E072B00C2A31392A1D2A3C2A31392A1D2A380
:0E073900C2A31392A1D2A3C2A31392A1D2A372
:0E074700C2A31392A1D2A3C2A31392A1D2A364
:03075500C2A3221A
:06075800AA82AB13AC14F1
:0E075E008A051AED60128B828C83E0FDA3AB3E
:0A076C0082AC838D8212071D80E825
:010776002260
:0707770085821385831485C0
:09077E0015821207587582012250
:0A078700E5A0FA20E50475820022C7
:0A079100530210BA10047582012211
:04079B007582002241
:0712CB007516007517009075
:0912D200180DE4F090180EF090E4
:0712DB00180FF0901810F04D
:0A079F00AA82747F5AF5287529011B
:0507A900752A208518EF
:0307AE002B85197F
:0807B1002C752D047582000275
:0207B9000962D3
:0807BB007A00E50860027A01F2
:0707C300E509600343020297
:0707CA00E516600343020481
:0707D100E517600343020875
:0707D800901810EAF07518FB
:0307DF000D75197C
:0707E2001875820402079F55
:0C07E900E5825401FA601053A0FE750870
:0807F50000750900751600757E
:0307FD00170022C0
:0408000043A00122EE
:0C080400AA825302018A08C0021207BB3E
:0C081000D002EA6009750B0043B10853E8
:02081C00B1F732
:01081E0022B7
:0C081F00AA825302018A09C0021207BB22
:0C082B00D002EA6009750A0043B10853CE
:02083700B1F717
:01083900229C
:0A083A00AA8274015AF5160207BBEA
:0A084400AA8274015AF5170207BBDF
:0D084E0090E6F574FFF0009013EAE493903B
:0D085B00E6F3F09013EBE49390E6C3F09009
:0E08680013ECE49390E6C1F09013EDE493904E
:0E087600E6C2F09013EFE49390E6C0F07A0033
:03088400BA800037
:0E08870050128A037CE4EA90134693FD8B82A4
:060895008C83F00A80E9EB
:06089B0090E6C6E4F02225
:0E13460001010101010101070000000000008B
:0E13540000000000000000000000000000008B
:0E1362000000003F013F0101010101072203CD
:0E13700002020202020000010101010101005F
:0E137E00000000000000003F0111013F0101CE
:0E138C00010700030001000000000604040039
:0E139A0000000000002D002D0000003F013972
:0E13A80001010101010700030202020202001E
:0E13B6000000000000000000002D00000000FC
:0213C400003FE8
:0E13C600000000000000000000000000000019
:0E13D40000000000812D2600040403020081A9
:0813E2002D21000404030200A8
:0713EA00A0000000EE4E0020
:0CE0000012010002FFFFFF40FEFF0200C3
:06E00C0000010102060103
:0AE012000A060002FFFFFF400100B4
:0EE01C0009023200030100C0000904000000E8
:0EE02A00FFFFFF030904010001FFFFFF0407D1
:0EE038000502020002000904020001FFFFFFC2
:08E04600050705860200020037
:0CE04E0012010002FFFFFF40FEFF020075
:06E05A00000101020001BB
:0AE060000A060002FFFFFF40010066
:0EE06A0009021200010100C0000904000000BC
:04E07800FFFFFF03A4
:01E07C00079C
:02E07D008CE035
:02E07F0092E02D
:02E08100BAE003
:02E08300D0E0EB
:02E08500F2E0C7
:02E087000EE1A8
:02E0890028E18C
:06E08C0006030000090478
:0EE09200280346007200650065002000530060
:0EE0A0006F006600740077006100720065007A
:0CE0AE00200046006F006C006B00730047
:0EE0BA00160355005300520050002000520083
:06E0C80065007600200057
:02E0CE003F0011
:0EE0D000220343006F006D006D0061006E00C2
:0EE0DE00640020002600200053007400610042
:06E0EC00740075007300D2
:0EE0F2001C035400720061006E0073006D008C
:0EE10000690074002000500061007400680087
:0EE10E001A0352006500630065006900760088
:0CE11C00650020005000610074006800E5
:02E128001203E0
:0EE12A0033002E003100340031003500390082
:02E138003300B2
:0E08A100AA8263020143803874075AC40354CC
:0C08AF00F8628043B1F074F05A62B1228C
:0908BB007582001208A1C281221D
:0A08C400AA827B00EA30E0027B010B
:0508CE00EA30E1010B1E
:0508D300EA30E2010B18
:0508D800EA30E3010B12
:0508DD00EA30E4010B0C
:0508E200EA30E5010B06
:0508E700EA30E6010B00
:0508EC00EA30E7010BFA
:0308F1008B8222D5
:0C08F400AA82852382C0021208C4AB82D5
:0B090000D002EB24FE500475820022A0
:0B090B00852382C0021208A1D002E583
:080916002430E7047582002281
:0C091E0074605524FB6023BB20028005A0
:05092A00BB401780082E
:08092F008522821209BB801130
:090937008A821209BB852282129A
:0409400009BB80046B
:040944007582002296
:06094800E527600C852785
:05094E002F85258285C4
:050953002683120A7367
:0A0958007582001208A175820122C9
:0C096200AA82852982C0021208A1D002DE
:09096E00E52A30E704758200223D
:0C0977007460552AFB6023BB2002800541
:05098300BB40178008D5
:080988008528821209BB8011D1
:090990008A821209BB852882123B
:0409990009BB800412
:04099D00758200223D
:0609A100E52D600C852D20
:0509A7002E852B828566
:0509AC002C83120A0C6F
:0A09B1007582001208A17582012270
:0E09BB00E58223FA139281D280C280EA23FAE9
:0E09C900139281D280C280EA23FA139281D267
:0E09D70080C280EA23FA139281D280C280EAA5
:0E09E50023FA139281D280C280EA23FA139281
:0E09F30081D280C280EA23FA139281D280C2A0
:0B0A010080EA23139281D280C2802281
:060A0C00AA82AB83AC2EB0
:0E0A12008C051CED601E8A828B83E0FDA3AA7A
:0E0A200082AB838D82C002C003C0041209BBEA
:080A2E00D004D003D00280DCEB
:010A3600229D
:0E0A3700E4D280A28233C280D280A28233C277
:0E0A450080D280A28233C280D280A28233C2CD
:0E0A530080D280A28233C280D280A28233C2BF
:0E0A610080D280A28233C280D280A28233C2B1
:040A6F0080F582226A
:060A7300AA82AB83AC2F48
:0E0A79008C051CED6012120A37AD828A828B4A
:0A0A870083EDF0A3AA82AB8380E8A0
:010A91002242
:090A9200AA82901811E51AF07512
:030A9B003A117598
:030A9E003B18758D
:0C0AA1003C018A82C002120BE9E582D001
:060AAD00027003F5822235
:040AB300851B3A85E0
:030AB7001C3B8560
:050ABA001D3C8A8202D0
:020ABF000B2901
:080AC1007812E84400600C7992
:0C0AC90001901800E4F0A3D8FCD9FAD08A
:0E0AD50083D082F6D8FDC082C08375820022D5
:080AE30090E6A0E04401F022BE
:0E0AEB00AA8274805AC423541FFB740F5A90C1
:0C0AF900E6834BF090E683E04420F022FE
:0E0B050090E680E0440AF09000FA1212A290EE
:0E0B1300E65D74FFF090E65F74FFF05391EF23
:080B210090E680E054F7F02299
:0612FD00E478FFF6D8FDC5
:0A0B2900AA82E53C700475820122E7
:0E0B330090E678E0FB20E6F890E6787480F01B
:0A0B4100EA2AFA90E67974014AF0FE
:0E0B4B0090E678E0FA30E0F890E678E0FA30D4
:050B5900E203020BDEC7
:0B0B5E0090E678E0FA20E103020BDED5
:0C0B69007401B53C0890E678E0FA4420E6
:010B7500F08F
:090B760090E679E0F53DAA3AABE6
:030B7F003BAC3C50
:040B82001CEC6030D7
:0E0B860090E678E0FD30E0F890E678E0FD20A3
:0D0B9400E248BC010890E678E0FD4420F046
:0E0BA10090E679E0FD8A828B83F0A3AA82ABF6
:070BAF00838A3A8B3B80CCE6
:0E0BB60090E678E0FA30E0F890E678E0FA2079
:0C0BC400E21890E678E04440F0AA3AAB5A
:0C0BD0003B90E679E08A828B83F075820E
:020BDC000122F4
:0B0BDE0090E678E04440F075820022B1
:020BE900AA82DE
:0E0BEB0090E678E0FB20E6F890E6787480F063
:070BF900EA2AFA90E679F008
:0E0C000090E678E0FA30E0F890E678E0FA202E
:0C0C0E00E24790E678E0FA30E13FAA3AB5
:040C1A00AB3BAC3C08
:0E0C1E00EC602B8A828B83E0FDA3AA82AB835D
:060C2C0090E679EDF01CDA
:0E0C320090E678E0FD30E0F890E678E0FD20F6
:0C0C4000E21590E678E0FD20E1D4800B86
:0B0C4C0090E678E04440F07582012241
:0B0C570090E678E04440F07582002237
:0A0C6200AC82AD83AE3BAF3CBE0098
:050C6C0004EF600C1F05
:030C71000FE53A52
:080C74001210ACA3DEFADFF858
:050C7C008C828D832233
:0612E200753000753100BB
:0A0C810090E680E0FA30E7197532C2
:030C8B00007533BE
:030C8E00E07534DA
:030C9100127535A4
:030C9400E07536D2
:030C97001C753792
:030C9A00E07538CA
:030C9D006A75393C
:020CA000E02250
:040CA20075324E75E4
:030CA60033E075C3
:030CA9003460753F
:030CAC0035E075BB
:030CAF00366A752D
:030CB20037E075B3
:030CB500381C7573
:030CB80039E022FE
:090CBB005391EF75A100D2003243
:0C0CC400C021C0E0C0F0C082C083C002AC
:0E0CD000C003C004C005C006C007C000C001BC
:0E0CDE00C0D075D0005391EF75A100120C81AB
:0E0CEC00D0D0D001D000D007D006D005D00463
:0D0CFA00D003D002D083D082D0F0D0E0D063
:020D0700213297
:0C0D0900C021C0E0C0F0C082C083C00266
:0E0D1500C003C004C005C006C007C000C00176
:0E0D2300C0D075D0005391EF75A100120C8165
:0E0D3100D0D0D001D000D007D006D005D0041D
:0D0D3F00D003D002D083D082D0F0D0E0D01D
:020D4C00213252
:050D4E00120C81753A52
:030D5300BB753B32
:080D56000C75820012112875D2
:030D5E003AC4751F
:060D61003B0C758210122C
:040D67001128753AA0
:030D6B0009753BCC
:0C0D6E000D75821412112890E65C74319F
:020D7A00F02265
:0D0D7C00E582547FFA24F7500475820022AE
:070D8900BA0104758201228A
:080D9000530201E4BA00010462
:030D9800F58222BF
:0E0D9B00AA82BA010C90E6A1E0FB7C008B82DC
:030DA9008C832216
:0E0DAC00BA810C90E6A2E0FB7C008B828C8367
:010DBA002216
:0E0DBB0053027FEA700C90E6A0E0FB7C008BF8
:040DC900828C832273
:0E0DCD0090E6A3E0FB7C00EAC313FA7D00EA87
:090DDB002BFBED3C8B82F5832219
:0C0DE400C20090E6B8E0FA530260BA00CA
:030DF00002802856
:050DF300BA2002800D92
:050DF800BA4002800E6C
:050DFD00BA6002800352
:030E02000210A437
:060E0500120AE30210A432
:0A0E0B0012018EE58260030210A4BC
:060E1500120AE30210A422
:0D0E1B0090E6B8E0FA530280BA800280032E
:030E2800020FA511
:0B0E2B0090E6B9E0FABA0003020F1CC9
:050E3600BA0602803540
:050E3B00BA0802800866
:050E4000BA0A02801750
:030E4500020F9FFA
:0C0E480090E740E530F090E68AE4F0907E
:080E5400E68B7401F00210A40A
:0C0E5C0090E740E531F090E68AE4F09069
:080E6800E68B7401F00210A4F6
:0A0E700090E6BBE0FABA0102801719
:050E7A00BA02028038FD
:050E7F00BA03028059D6
:050E8400BA0602801B0C
:050E8900BA0702803CE5
:030E8E00020F163A
:0A0E9100AA32AB3390E6B3EBF07B1E
:090E9B000090E6B4EAF00210A494
:0A0EA400AA34AB3590E6B3EBF07B07
:090EAE000090E6B4EAF00210A481
:0A0EB700AA36AB3790E6B3EBF07BF0
:090EC1000090E6B4EAF00210A46E
:0A0ECA00AA38AB3990E6B3EBF07BD9
:090ED4000090E6B4EAF00210A45B
:0E0EDD0090E6BAE0FA90E07CE0FBC3EA9B40AE
:070EEB0006120AE30210A445
:0C0EF20090E6BAE075F002A4247DF582C1
:0B0EFE0074E035F0F583E0FAA3E0900B
:0D0F0900E6B3F07B0090E6B4EAF00210A41D
:060F1600120AE30210A420
:0D0F1C0090E6B8E0FA53021FBA0002800A06
:050F2900BA0102801D69
:050F2E00BA0268802EEC
:0E0F330090E7407401F090E741E4F090E68A08
:0A0F4100F090E68B7402F00210A499
:0E0F4B0090E740E4F090E741F090E68AF090E5
:080F5900E68B7402F00210A403
:0E0F610090E6BCE0F582120D7CE582602590E2
:0E0F6F00E6BCE0F582120D9BE0FA5302019001
:0E0F7D00E740EAF090E741E4F090E68AF09059
:080F8B00E68B7402F00210A4D1
:060F9300120AE30210A4A3
:060F9900120AE30210A49D
:060F9F00120AE30210A497
:0C0FA50090E6B9E0FA24F450030210A119
:070FB100EA2A2A900FB87331
:070FB8000210A1020FEE027E
:060FBF00106902104A0255
:060FC50010A10210A102C0
:060FCB0010A10210A102BA
:060FD10010A1020FDC027A
:050FD70010A1020FE56E
:090FDC0090E6BAE0F5300210A421
:090FE50090E6BAE0F5310210A417
:0D0FEE0090E6B8E0FA53021FBA0002800539
:050FFB00BA0247800A64
:0A10000090E6BAE0120AE30210A421
:0D100A0090E6BAE0703090E6BCE0F582128E
:0D1017000D7CE582602390E6BCE0F58212BE
:0E1024000D9BAA82AB83E0FC5304FE8A828BF4
:0E10320083ECF090E6BCE0F582120AEB8064DD
:05104000120AE3805FCD
:05104500120AE3805ACD
:0E104A0090E6B8E0FA53021FBA004F90E6BAE3
:07105800E0FABA0102800575
:05105F00BA020280400E
:05106400120AE3803BCD
:0E10690090E6BAE0FA702C90E6BCE0F5821238
:0D1077000D7CE582601A90E6BCE0F5821267
:0E1084000D9BAA82AB83E0FC4304018A828BA1
:0510920083ECF0800D6D
:05109700120AE38008CD
:05109C00120AE38003CD
:0310A100120AE34D
:0810A40090E6A0E04480F02278
:0E10AC0020F71030F6118883A88220F507F691
:0510BA00A8837583000E
:0110BF00220E
:0310C000F280F7C4
:0210C300F02219
:0510C500AA82BA03003D
:0710CA004005EA249C5001DF
:0110D10022FC
:0910D200740F5AFBBB03028007F6
:0710DB00740F5AFBBB0B452B
:0A10E200A2AF9201C2AFEA2400F5AC
:0C10EC0082E43400F5837402F07B007491
:0C10F800012AFCE43BFDEC2400F582ED35
:0A1104003400F583E53BFCF07402B3
:0C110E002AFAE43BFBEA2400F582EB34F3
:0A111A0000F583AA3A7B00EAF0A278
:031124000192AF86
:0111270022A5
:08112800E582FA248350012244
:06113000EA5403600122F5
:0A113600A2AF9202C2AFEA2400F556
:0C11400082E43401F5837402F07B00743B
:0C114C00012AFCE43BFDEC2400F582EDE0
:0A1158003401F583E53BF074022A30
:0B116200FAE43BFBEA2400F582EB34CA
:08116D0001F583AA3AEAF0A2A1
:041175000292AF2211
:08117900E582FA24CB500122AB
:06118100EA5403600122A4
:0A118700A2AF9203C2AFEA2480F584
:0C11910082E43400F5837402F07B0074EB
:0C119D00012AFCE43BFDEC2480F582ED0F
:0A11A9003400F583E53BF074022AE0
:0B11B300FAE43BFBEA2480F582EB34F9
:0811BE0000F583AA3AEAF0A251
:0411C6000392AF22BF
:0811CA00C2E8C2EA753A0075A3
:0611D2003B01758243128F
:0411D80010C5753A8F
:0311DC0080753BE0
:0C11DF00007582531210C50090E650E429
:0E11EB00F00090E652E4F00090E654E4F000CC
:0E11F90090E656E4F00090E65174FFF000908E
:0E120700E65374FFF00090E65574FFF000907F
:0E121500E65774FFF00090E658E4F090E659BA
:0E12230074FFF090E65AE4F090E65B74FFF082
:0E12310090E65CE4F090E65D74FFF090E65EFF
:0E123F00E4F090E65F74FFF00090E660E4F0EB
:0D124D000090E66174FFF090E662E4F0901E
:0E125A00E66374FFF090E665E4F090E66874D9
:0A1268000BF05391AFD2E8D2EA2256
:0A127200AA82AB83C2AD8A3A8B3B1F
:0E127C0075822B1210C575CB6375CAC075C87C
:04128A0004D2AD22BB
:01128E00223D
:02128F00AA8231
:0612910012128EDAFB22AE
:0312970090FB5079
:08129A00A3E582458370F922EF
:0412A200AA82AB83EE
:0812A6001212971ABAFF011B96
:0512AE00EA4B70F42280
:0312F00075813DC8
:0A12F300120AC1E58260030212EB4B
:00000001FF
