:0600000002139C02006BDC
:03000B0002006B85
:0300130002006B7D
:03001B0002006B75
:0300230002006B6D
:03002B0002006B65
:0300330002006B5D
:03003B0002006B55
:0300430002006B4D
:03004B0002006B45
:0300530002006B3D
:03005B0002006B35
:0300630002006B2D
:01006B003262
:0900800002006B0002006B00029B
:08008900006B0002006B000295
:08009100006B0002006B00028D
:08009900006B0002006B000285
:0800A100006B0002006B00027D
:0800A900006B0002006B000275
:0700B100006B0002006B0070
:0901000002006B0002006B00021A
:08010900006B0002006B000214
:08011100006B0002006B00020C
:08011900006B0002006B000204
:08012100006B0002006B0002FC
:08012900006B0002006B0002F4
:08013100006B0002006B0002EC
:08013900006B0002006B0002E4
:08014100006B0002006B0002DC
:08014900006B0002006B0002D4
:08015100006B0002006B0002CC
:08015900006B0002006B0002C4
:08016100006B0002006B0002BC
:08016900006B0002006B0002B4
:08017100006B0002006B0002AC
:07017900006B0002006B00A7
:09018000E582FA700443A040225C
:0401890053A0BF229E
:09018D00E582FA700443A080220F
:0401960053A07F22D1
:04019A0063A04022FC
:04019E0063A08022B8
:0101A200223A
:0101A3002239
:0B01A400AA82901800E509F0743F5596
:0601AF0008FBEAB40100A8
:0901B500E433FA60047A028002CE
:0201BE007A04C1
:0501C0008B348A357547
:0401C5003620753734
:0301C90000753886
:0801CC0018753901758200026B
:0201D4000A27F8
:0C01D600AA82901800E50AF0743F5AF568
:0501E2003475350675BF
:0401E7003620753712
:0301EB0000753864
:0801EE00187539017582000249
:0201F6000A27D6
:0A01F800750A017582011201D67527
:090202000A0F7582081201D6757D
:08020B000A007582140201D6FD
:0D0213001201A212098053A0FE43A00102B7
:0202200001F8E3
:09022200AA82901801E50BF075A9
:03022B003C01751E
:03022E003D187503
:0C0231003E018A82C002120C7FE582D0E0
:06023D00027003F58222AD
:04024300850C3C8565
:030247000D3D85E5
:05024A000E3E8A820255
:02024F000BBFE3
:0C02510053A0C175822812137843A0044A
:09025D00E5A030E5FB75820122E9
:0E026600E5821392A1D2A3C2A31392A1D2A348
:0E027400C2A31392A1D2A3C2A31392A1D2A33C
:0E028200C2A31392A1D2A3C2A31392A1D2A32E
:0E029000C2A31392A1D2A3C2A31392A1D2A320
:03029E00C2A322D6
:0602A100AA82AB0FAC10B5
:0E02A7008A051AED60128B828C83E0FDA3ABFA
:0A02B50082AC838D8212026680E89D
:0102BF00221C
:0702C00085820F8583108584
:0902C70011821202A175820122CC
:0A02D000E5A0FA20E5047582002283
:0A02DA00530210BA100475820122CD
:0402E40075820022FD
:07139C0075120075130090AB
:0913A3001802E4F0901803F09028
:0713AC001804F0901805F091
:0A02E800AA82747F5AF534753501BF
:0502F2007536208514A3
:0302F70037851533
:0802FA00387539047582000219
:020302000A27C8
:080304007A00E52260027A0193
:07030C00E523600343020238
:07031300E512600343020440
:07031A00E513600343020834
:07032100901805EAF07514C5
:0303280002751546
:07032B00187582040202E8CC
:0C033200E5825401FA601053A0FE752211
:08033E00007523007512007523
:030346001300227F
:0403490043A00122AA
:0C034D00AA825302018A22C0021203049B
:0C035900D002EA600975250043B108538A
:02036500B1F7EE
:010367002273
:0C036800AA825302018A23C0021203047F
:0C037400D002EA600975240043B1085370
:02038000B1F7D3
:010382002258
:0A038300AA8274015AF51202030465
:0A038D00AA8274015AF5130203045A
:0E03970090E6007410F0758E0090E60174F28E
:0E03A500F00075803875B23B75A0C075B4CFFE
:0E03B30075B1F075B6F890E61074A0F00090E9
:0E03C100E61174E0F00090E61274A0F00090D7
:0D03CF00E613E4F00090E61474E0F00090F6
:0D03DC00E615E4F00090E6047480F0009057
:0E03E900E6047402F00090E6047406F0009042
:0D03F700E604E4F00090E6187401F00090B8
:0E040400E6187411F00090E61A7409F00090EA
:0E041200E68AE4F00090E68DE4F00090E6D279
:0E0420007401F00090E6E27402F00090E62411
:0D042E007402F00090E625E4F000020213D5
:0E13F4000101010101010107000000000000DD
:0E1402000000000000000000000000000000DC
:0E1410000000003F013F01010101010722031E
:0E141E000202020202000001010101010100B0
:0E142C00000000000000003F0111013F01011F
:0E143A0001070003000100000000060404008A
:0E14480000000000002D002D0000003F0139C3
:0E14560001010101010700030202020202006F
:0E1464000000000000000000002D000000004D
:02147200003F39
:0E14740000000000000000000000000000006A
:0E14820000000000812D2600040403020081FA
:081490002D21000404030200F9
:07149800A0000000EE4E0071
:0313D6000213DE21
:0713B300752B00752C00757D
:0613BA002D0175220075F3
:0613C000230075240075F6
:0713C6002500752600E4F587
:0313CD0029F52AD5
:0313F1000213D90B
:0513D90012091B80FE5B
:05043B0090E68BE4F0E7
:0904400090E6A0E0FA20E1F822A8
:0A04490090E6B8E0FABAC0028003A2
:0304530002051E81
:0A04560090E6B9E0FABA8002800EC9
:05046000BA8102804793
:06046500BA82030204DA72
:03046B0002051A6D
:0C046E0090E6BCE0FA6005BA013080178F
:0A047A0090E740E525F0752500909D
:0D048400E68AE4F090E68B7401F00206E3D6
:0A04910090E740E524F07524009088
:0D049B00E68AE4F090E68B7401F00206E3BF
:0404A8007582002237
:0A04AC0090E6BAE0FA753C40753D99
:0C04B600E790E6BEE0F53E8A82120BBF24
:0704C200E5827003F58222C0
:0E04C90090E68AE4F090E6BEE0FA90E68BF052
:0304D7000206E337
:0C04DA0090E6BBE0FA90E6BAE0F52E9048
:0A04E600E6BDE0F52F90E6BCE0F55E
:0504F00030753140757C
:0A04F50032E790E6BEE0F5338A829C
:0A04FF001209B9E5827003F58222AC
:0E05090090E68AE4F090E6BEE0FA90E68BF011
:030517000206E3F6
:04051A0075820022C4
:0A051E0090E6B8E0FABA400280034C
:030528000206DFE9
:0C052B0090E6B9E0FA24F450030206DB6D
:07053700EA2A2A90053E7339
:07053E000206DB0205620268
:06054500058A0206DB023C
:06054B0005B40205C00228
:0605510005CC0206DB02EE
:0605570005F0020614028B
:05055D0005D80205E4D1
:0C05620090E6BCE0FA6005BA011A800CBB
:0C056E0090E6BAE0F5821201800206E37C
:0C057A0090E6BAE0F58212018D0206E363
:040586007582002258
:0C058A0090E6BCE0FA600ABA01028008AA
:05059600BA02178012FB
:03059B0002025108
:0C059E0012043B90E68BE0F51190E74062
:0305AA000202C08A
:0305AD000202D077
:0405B000758200222E
:0C05B40090E6BAE0F5821203320206E382
:0C05C00090E6BAE0F58212034D0206E35B
:0C05CC0090E6BAE0F5821203680206E334
:0C05D80090E6BAE0F5821203830206E30D
:0C05E40090E6BAE0F58212038D0206E3F7
:0C05F00012043B90E6BAE0FA753C40753E
:0A05FC003DE790E68BE0F53E8A82B1
:0A060600120C7FE58260030206E398
:0406100075820022CD
:0E06140012043B90E6BDE0FA20E2030206ACC1
:0D06220090E6BAE0FABA0105901806E4F07F
:0D062F0090E6BAE0FABA0205901806E4F071
:0D063C0090E6BAE0FABA0305901806E4F063
:0E06490090E6BAE0FABA04069018067405F0BE
:0E06570090E6BAE0FABA1206901806744BF05C
:0E06650090E6BAE0FABA13069018067411F087
:0D06730090E6BAE0FABA1405901806E4F01B
:0C06800090E6BBE0FA90E6BAE0F534909A
:0A068C00E6BDE0F53590E6BCE0F5B0
:030696003675377F
:03069900067538AB
:07069C00187539018A821272
:0906A3000A27E582703AF5822273
:0C06AC0090E6BBE0FA90E6BAE0F534906E
:0A06B800E6BDE0F53590E6BCE0F584
:0506C20036753740759C
:0A06C70038E790E68BE0F5398A82EF
:0A06D100120A27E582700BF5822261
:0406DB007582002202
:0406DF0075820022FE
:0406E30075820122F9
:0706E7008582378583387519
:0606EE0034007535207593
:0906F4003600753903758200021D
:0206FD000A27CA
:0E06FF00AA829018097403F090180A74F6F09D
:0C070D0090180B7435F0901809C002120F
:0A07190006E7D002EA90149F9390C7
:090723001809F0EA9014A7939064
:09072C00180AF0EA9014AF939052
:09073500180BF0901809C0021223
:0A073E0006E7D002EA9014B793908A
:090748001809F0EA9014BF939027
:09075100180AF0EA9014C7939015
:07075A00180BF090180902D2
:0207610006E7A9
:0B076300AA8290180CE528F0743F55A6
:06076E0027FBEAB40100C4
:09077400E433FA60047A02800209
:02077D007A04FC
:05077F008B348A357582
:04078400362075376F
:030788000C7538B5
:08078B001875390175820002A6
:020793000A2733
:0D07950090E6C67481F090E6C7742DF090D8
:0E07A200E6C87426F090E6C9E4F090E6CA744A
:0E07B00004F090E6CB7404F090E6CC7403F0F5
:0B07BE0090E6CD7402F090E60CE4F031
:0A07C90074405580FAB52C0280231D
:0A07D300E52C701FE58030E7037588
:0207DD002B00EF
:0907DF00052B74F8252B5003755D
:0207E8002B00E4
:0C07EA00852B82C0021206FFD002801096
:0607F600EAB52C02800AA6
:0A07FC00758200C0021206FFD00251
:060806008A2C30000312F1
:02080C000E7A62
:0C080E00E5BB30E7B6E522602AE5AB2030
:0E081A00E12590E6F4E0FA30E01D90E6D0749F
:0E08280001F00090E6D1E4F00090E6C87421E3
:06083600F00075BB00009C
:05083C00E5BB30E7FB05
:0C084100E523608490E6A5E0FA30E303B4
:03084D000207C9D6
:0B08500090E6F4E0FA20E1030207C983
:0E085B0090E6D07401F00090E6D1E4F0009039
:0A086900E6C87426F00075BB060017
:0D087300E5BB30E7FB0090E6487406F0029C
:0208800007C9A6
:0C088200C0E0C0D075D000C3E52994DCB4
:0A088E00E52A6480948550080529CE
:06089800E4B52902052A67
:0A089E00D52D09752D0A63A04075E1
:0208A800260127
:0708AA00C2CFD0D0D0E03234
:0408B100750C0D7540
:0308B5000D1875A6
:0908B8000B05750E01758250124A
:0808C100022290180DE0FA90EC
:0C08C900E00CF090E05AEAF074302A9045
:0508D500E0CEF0750CFF
:0308DA000E750D8B
:0508DD0018750BF87511
:0A08E2000E087582501202227A00FF
:0308EC00BA080047
:0A08EF005029EA240EF582E43418C3
:0908F900F583E0FBBBFF027B303C
:0C0902008A04E4CC25E0CC33FDEC242A70
:0C090E00F582ED34E1F583EBF00A80D2B5
:01091A0022BA
:08091B00753C00753D10E4F588
:0B0923003E90E1F075F000120CF8129D
:0E092E00039712115B90E601E04404F075821D
:0D093C000012018075820012018DC2AF1201
:0609490008B11212B31206
:05094F000DE47A827B3B
:0C095400088A828B8312135BD2EAD2AFB8
:06096000120B9B0207953B
:08149F0000030201000003023A
:0814A7000D0D0D0D0D0D0D0DD5
:0814AF00334353637393A3B3AD
:0814B700000102020300010222
:0814BF00804C19E6B3804C19C2
:0814C70004C494643404C494CD
:0814CF008686868686868686E5
:0814D7008E8E8E8E8E8E8E8E9D
:0CE0000012010002FFFFFF40FEFF0200C3
:06E00C0000010102060103
:0AE012000A060002FFFFFF400100B4
:0EE01C0009023200030100C0000904000000E8
:0EE02A00FFFFFF030904010001FFFFFF0407D1
:0EE038000502020002000904020001FFFFFFC2
:08E04600050705860200020037
:0CE04E0012010002FFFFFF40FEFF020075
:06E05A00000101020001BB
:0AE060000A060002FFFFFF40010066
:0EE06A0009021200010100C0000904000000BC
:04E07800FFFFFF03A4
:01E07C00079C
:02E07D008CE035
:02E07F0092E02D
:02E08100BAE003
:02E08300D0E0EB
:02E08500F2E0C7
:02E087000EE1A8
:02E0890028E18C
:06E08C0006030000090478
:0EE09200280346007200650065002000530060
:0EE0A0006F006600740077006100720065007A
:0CE0AE00200046006F006C006B00730047
:0EE0BA00160355005300520050002000520083
:06E0C80065007600200057
:02E0CE003F0011
:0EE0D000220343006F006D006D0061006E00C2
:0EE0DE00640020002600200053007400610042
:06E0EC00740075007300D2
:0EE0F2001C035400720061006E0073006D008C
:0EE10000690074002000500061007400680087
:0EE10E001A0352006500630065006900760088
:0CE11C00650020005000610074006800E5
:02E128001203E0
:0EE12A0033002E003100340031003500390082
:02E138003300B2
:0E096600AA8263020143803874075AC4035406
:0C097400F8628043B1F074F05A62B122C6
:09098000758200120966C2812291
:0A098900AA827B00EA30E0027B0145
:05099300EA30E1010B58
:05099800EA30E2010B52
:05099D00EA30E3010B4C
:0509A200EA30E4010B46
:0509A700EA30E5010B40
:0509AC00EA30E6010B3A
:0509B100EA30E7010B34
:0309B6008B82220F
:0C09B900AA82852F82C002120989AB823D
:0B09C500D002EB24FE500475820022DB
:0B09D000852F82C002120966D002E5EC
:0809DB003030E70475820022B0
:0C09E30074605530FB6023BB20028005CF
:0509EF00BB4017800869
:0809F400852E82120A80801199
:0909FC008A82120A80852E821203
:040A05000A808004DF
:040A090075820022D0
:060A0D00E533600C8533A7
:050A13003B85318285E6
:050A18003283120B38CF
:0A0A1D00758200120966758201223D
:0C0A2700AA82853582C002120966D00246
:090A3300E53630E704758200226B
:0C0A3C0074605536FB6023BB200280056F
:050A4800BB401780080F
:080A4D00853482120A80801139
:090A55008A82120A8085348212A3
:040A5E000A80800486
:040A62007582002277
:060A6600E539600C853942
:050A6C003A8537828588
:050A71003883120AD1D8
:0A0A760075820012096675820122E4
:0E0A8000E58223FA139281D280C280EA23FA23
:0E0A8E00139281D280C280EA23FA139281D2A1
:0E0A9C0080C280EA23FA139281D280C280EADF
:0E0AAA0023FA139281D280C280EA23FA1392BB
:0E0AB80081D280C280EA23FA139281D280C2DA
:0B0AC60080EA23139281D280C28022BC
:060AD100AA82AB83AC3ADF
:0E0AD7008C051CED601E8A828B83E0FDA3AAB5
:0E0AE50082AB838D82C002C003C004120A805F
:080AF300D004D003D00280DC26
:010AFB0022D8
:0E0AFC00E4D280A28233C280D280A28233C2B2
:0E0B0A0080D280A28233C280D280A28233C207
:0E0B180080D280A28233C280D280A28233C2F9
:0E0B260080D280A28233C280D280A28233C2EB
:040B340080F58222A4
:060B3800AA82AB83AC3B76
:0E0B3E008C051CED6012120AFCAD828A828BBF
:0A0B4C0083EDF0A3AA82AB8380E8DA
:010B5600227C
:080B57007816E84400600C79F7
:0C0B5F0001901800E4F0A3D8FCD9FAD0F3
:0E0B6B0083D082F6D8FDC082C083758200223E
:080B790090E6A0E04401F02227
:0E0B8100AA8274805AC423541FFB740F5A902A
:0C0B8F00E6834BF090E683E04420F02267
:0E0B9B0090E680E0440AF09000FA12138B906E
:0E0BA900E65D74FFF090E65F74FFF05391EF8D
:080BB70090E680E054F7F02203
:0613EB00E478FFF6D8FDD6
:0A0BBF00AA82E53E7004758201224F
:0E0BC90090E678E0FB20E6F890E6787480F085
:0A0BD700EA2AFA90E67974014AF068
:0E0BE10090E678E0FA30E0F890E678E0FA303E
:050BEF00E203020C749A
:0B0BF40090E678E0FA20E103020C74A8
:0C0BFF007401B53E0890E678E0FA44204E
:010C0B00F0F8
:090C0C0090E679E0F53FAA3CAB4B
:030C15003DAC3EB5
:040C18001CEC603040
:0E0C1C0090E678E0FD30E0F890E678E0FD200C
:0D0C2A00E248BC010890E678E0FD4420F0AF
:0E0C370090E679E0FD8A828B83F0A3AA82AB5F
:070C4500838A3C8B3D80CC4B
:0E0C4C0090E678E0FA30E0F890E678E0FA20E2
:0C0C5A00E21890E678E04440F0AA3CABC1
:0C0C66003D90E679E08A828B83F0758275
:020C720001225D
:0B0C740090E678E04440F0758200221A
:020C7F00AA8247
:0E0C810090E678E0FB20E6F890E6787480F0CC
:070C8F00EA2AFA90E679F071
:0E0C960090E678E0FA30E0F890E678E0FA2098
:0C0CA400E24790E678E0FA30E13FAA3C1D
:040CB000AB3DAC3E6E
:0E0CB400EC602B8A828B83E0FDA3AA82AB83C7
:060CC20090E679EDF01C44
:0E0CC80090E678E0FD30E0F890E678E0FD2060
:0C0CD600E21590E678E0FD20E1D4800BF0
:0B0CE20090E678E04440F075820122AB
:0B0CED0090E678E04440F075820022A1
:0A0CF800AC82AD83AE3DAF3EBE00FE
:050D020004EF600C1F6E
:030D07000FE53CB9
:080D0A00121142A3DEFADFF82A
:050D12008C828D83229C
:0613D00075160075170000
:0A0D170090E680E0FA30E719751845
:030D210000751941
:030D2400E0751A5D
:030D270012751B27
:030D2A00E0751C55
:030D2D001C751D15
:030D3000E0751E4D
:030D33006A751FBF
:020D3600E022B9
:040D380075184E7567
:030D3C0019E07546
:030D3F001A6075C2
:030D42001BE0753E
:030D45001C6A75B0
:030D48001DE07536
:030D4B001E1C75F6
:030D4E001FE02281
:090D51005391EF75A100D20032AC
:0C0D5A00C021C0E0C0F0C082C083C00215
:0E0D6600C003C004C005C006C007C000C00125
:0E0D7400C0D075D0005391EF75A100120D177D
:0E0D8200D0D0D001D000D007D006D005D004CC
:0D0D9000D003D002D083D082D0F0D0E0D0CC
:020D9D00213201
:0C0D9F00C021C0E0C0F0C082C083C002D0
:0E0DAB00C003C004C005C006C007C000C001E0
:0E0DB900C0D075D0005391EF75A100120D1738
:0E0DC700D0D0D001D000D007D006D005D00487
:0D0DD500D003D002D083D082D0F0D0E0D087
:020DE2002132BC
:050DE400120D17753C23
:030DE90051753D04
:080DEC000D7582001212117551
:030DF4003C5A75F1
:060DF7003D0D7582101293
:040DFD001211753C1E
:030E01009F753D9D
:0C0E04000D75821412121190E65C74311E
:020E1000F022CE
:0D0E1200E582547FFA24F750047582002217
:070E1F00BA010475820122F3
:080E2600530201E4BA000104CB
:030E2E00F5822228
:0E0E3100AA82BA010C90E6A1E0FB7C008B8245
:030E3F008C83227F
:0E0E4200BA810C90E6A2E0FB7C008B828C83D0
:010E5000227F
:0E0E510053027FEA700C90E6A0E0FB7C008B61
:040E5F00828C8322DC
:0E0E630090E6A3E0FB7C00EAC313FA7D00EAF0
:090E71002BFBED3C8B82F5832282
:0C0E7A00C20090E6B8E0FA530260BA0033
:030E8600028028BF
:050E8900BA2002800DFB
:050E8E00BA4002800ED5
:050E9300BA60028003BB
:030E980002113A0A
:060E9B00120B7902113A6E
:0A0EA100120449E582600302113AD1
:060EAB00120B7902113A5E
:0D0EB10090E6B8E0FA530280BA8002800398
:030EBE0002103BE4
:0B0EC10090E6B9E0FABA0003020FB29D
:050ECC00BA06028035AA
:050ED100BA08028008D0
:050ED600BA0A028017BA
:030EDB00021035CD
:0C0EDE0090E740E516F090E68AE4F09002
:080EEA00E68B7401F002113ADD
:0C0EF20090E740E517F090E68AE4F090ED
:080EFE00E68B7401F002113AC9
:0A0F060090E6BBE0FABA0102801782
:050F1000BA0202803866
:050F1500BA030280593F
:050F1A00BA0602801B75
:050F1F00BA0702803C4E
:030F2400020FAC0D
:0A0F2700AA18AB1990E6B3EBF07BBB
:090F31000090E6B4EAF002113A66
:0A0F3A00AA1AAB1B90E6B3EBF07BA4
:090F44000090E6B4EAF002113A53
:0A0F4D00AA1CAB1D90E6B3EBF07B8D
:090F57000090E6B4EAF002113A40
:0A0F6000AA1EAB1F90E6B3EBF07B76
:090F6A000090E6B4EAF002113A2D
:0E0F730090E6BAE0FA90E07CE0FBC3EA9B4017
:070F810006120B7902113A80
:0C0F880090E6BAE075F002A4247DF5822A
:0B0F940074E035F0F583E0FAA3E09074
:0D0F9F00E6B3F07B0090E6B4EAF002113AF0
:060FAC00120B7902113A5C
:0D0FB20090E6B8E0FA53021FBA0002800A70
:050FBF00BA0102801DD3
:050FC400BA0268802E56
:0E0FC90090E7407401F090E741E4F090E68A72
:0A0FD700F090E68B7402F002113A6C
:0E0FE10090E740E4F090E741F090E68AF0904F
:080FEF00E68B7402F002113AD6
:0E0FF70090E6BCE0F582120E12E582602590B5
:0E100500E6BCE0F582120E31E0FA53020190D3
:0E101300E740EAF090E741E4F090E68AF090C2
:08102100E68B7402F002113AA3
:06102900120B7902113ADE
:06102F00120B7902113AD8
:06103500120B7902113AD2
:0C103B0090E6B9E0FA24F45003021137EB
:07104700EA2A2A90104E7303
:07104E0002113702108402B9
:0610550010FF0210E00292
:06105B00113702113702FB
:06106100113702113702F5
:06106700113702107202B5
:05106D00113702107BA9
:0910720090E6BAE0F51602113A0D
:09107B0090E6BAE0F51702113A03
:0D10840090E6B8E0FA53021FBA00028005A2
:05109100BA0247800ACD
:0A10960090E6BAE0120B7902113A5D
:0D10A00090E6BAE0703090E6BCE0F58212F8
:0D10AD000E12E582602390E6BCE0F5821291
:0E10BA000E31AA82AB83E0FC5304FE8A828BC7
:0E10C80083ECF090E6BCE0F582120B818064B0
:0510D600120B79805FA0
:0510DB00120B79805AA0
:0E10E00090E6B8E0FA53021FBA004F90E6BA4D
:0710EE00E0FABA01028005DF
:0510F500BA0202804078
:0510FA00120B79803BA0
:0E10FF0090E6BAE0FA702C90E6BCE0F58212A2
:0D110D000E12E582601A90E6BCE0F5821239
:0E111A000E31AA82AB83E0FC4304018A828B73
:0511280083ECF0800DD6
:05112D00120B7980089F
:05113200120B7980039F
:03113700120B791F
:08113A0090E6A0E04480F022E1
:0E11420020F71030F6118883A88220F507F6FA
:05115000A88375830077
:011155002277
:03115600F280F72D
:02115900F02282
:0D115B0090E6F574FFF000901498E4939076
:0D116800E6F3F0901499E49390E6C3F09044
:0E117500149AE49390E6C1F090149BE49390DA
:0E118300E6C2F090149DE49390E6C0F07A006E
:03119100BA800021
:0E11940050128A037CE4EA9013F493FD8B82E0
:0611A2008C83F00A80E9D5
:0611A80090E6C6E4F0220F
:0511AE00AA82BA030053
:0711B3004005EA249C5001F5
:0111BA002212
:0911BB00740F5AFBBB030280070C
:0711C400740F5AFBBB0B4541
:0A11CB00A2AF9201C2AFEA2400F5C2
:0C11D50082E43400F5837402F07B0074A7
:0C11E100012AFCE43BFDEC2400F582ED4B
:0A11ED003400F583E53DFCF07402C8
:0C11F7002AFAE43BFBEA2400F582EB340A
:0A12030000F583AA3C7B00EAF0A28C
:03120D000192AF9C
:0112100022BB
:08121100E582FA24835001225A
:06121900EA54036001220B
:0A121F00A2AF9202C2AFEA2400F56C
:0C12290082E43401F5837402F07B007451
:0C123500012AFCE43BFDEC2400F582EDF6
:0A1241003401F583E53DF074022A44
:0B124B00FAE43BFBEA2400F582EB34E0
:0812560001F583AA3CEAF0A2B5
:04125E000292AF2227
:08126200E582FA24CB500122C1
:06126A00EA5403600122BA
:0A127000A2AF9203C2AFEA2480F59A
:0C127A0082E43400F5837402F07B007401
:0C128600012AFCE43BFDEC2480F582ED25
:0A1292003400F583E53DF074022AF4
:0B129C00FAE43BFBEA2480F582EB340F
:0812A70000F583AA3CEAF0A265
:0412AF000392AF22D5
:0812B300C2E8C2EA753C0075B7
:0612BB003D0175824312A3
:0412C10011AE753CB9
:0312C50080753DF4
:0C12C800007582531211AE0090E650E455
:0E12D400F00090E652E4F00090E654E4F000E2
:0E12E20090E656E4F00090E65174FFF00090A4
:0E12F000E65374FFF00090E65574FFF0009096
:0E12FE00E65774FFF00090E658E4F090E659D1
:0E130C0074FFF090E65AE4F090E65B74FFF098
:0E131A0090E65CE4F090E65D74FFF090E65E15
:0E132800E4F090E65F74FFF00090E660E4F001
:0D1336000090E66174FFF090E662E4F09034
:0E134300E66374FFF090E665E4F090E66874EF
:0A1351000BF05391AFD2E8D2EA226C
:0A135B00AA82AB83C2AD8A3C8B3D31
:0E13650075822B1211AE75CB6375CAC075C8A8
:0413730004D2AD22D1
:011377002253
:02137800AA8247
:06137A00121377DAFB22DA
:0313800090FB508F
:08138300A3E582458370F92205
:04138B00AA82AB8304
:08138F001213801ABAFF011BC2
:05139700EA4B70F42296
:0313DE0075813FD7
:0A13E100120B57E58260030213D9D6
:00000001FF
